:0C0000000C9433000C9400000C940000E1
:10000C000C9400000C9400000C9400000C94000064
:10001C000C9400000C9400000C948D000C940000C7
:10002C000C9400000C9400000C9400000C94000044
:10003C000C9400000C9400000C9400000C94000034
:10004C000C9400000C940000001980C00200040005
:10005C0054000200600156000000F894EE27ECBB3F
:10006C00F1E0FBBFEBBFE5BF8DE0A2E0BB27ED935A
:10007C008A95E9F780E094E0A0E6ED930197E9F723
:10008C00E8E5F0E085919591009761F0A591B59127
:10009C0005901590BF01F00105900D920197E1F7C5
:1000AC00FB01F0CFEFE5EDBFE4E0EEBFC0E6D1E041
:1000BC000C946000E0E0EABBEBBBE7BBE8BBE4BB45
:1000CC00E5BBE1BBE2BBE1E0E3BFE0E0E2BFECBFDC
:1000DC00E1E0E9BFE0E0EFBDEEBDEDBDECBDE7BD9D
:1000EC00E6BDEBBDEABDE9BDE8BDE2BDE5BDE4BDE5
:1000FC00E3BDE5BFE4BFEAB9E0E8E8B9E0E0E0BFA2
:10010C00E6B9EDB9E6BFA4E18CD0FFCFFFCF0A92E0
:10011C001A92FA926A937A938A939A93AA93BA93BD
:10012C00EA93FA93EFB7EA93F20131962F01D201D9
:10013C00E4E6F0E00E9472013097C1F4D201E4E6EB
:10014C00F0E00E946D01AE2F58D0E0EDF7E0E41521
:10015C00F50521F4E0E0EA93A1E038D0ECE8F3E215
:10016C00E415F50519F4E0E0E3BFE9BFE0E0E2BF18
:10017C00E991EFBFF991E991B991A991999189917F
:10018C0079916991F990199009901895AA93EBB30C
:10019C00EF70AE2FE881E07FEA2BEBBB82E08A9513
:1001AC00F1F7DA9A82E08A95F1F7DA9882E08A958B
:1001BC00F1F75FC0AA93A881E9DFE881E295E883B3
:1001CC00A881E4DF81E18A95F1F753C0AA93E88115
:1001DC00F0E0E05AFE4FE081A981AE0FEBDF7980B1
:1001EC00688022960895A2E046D0ACE0E3DFA1E05F
:1001FC0042D0E0E06E2E7E2E0895AA93A881AA30FC
:10020C0011F0791440F0E0E0EA936394A62DDEDF60
:10021C00A881AA3071F17394D89AA881CBDFD898B1
:10022C0028C0AA93EAB3E06FEABBD29AD09AD19ACB
:10023C00DA98D898D9989880E881E058E0936201D0
:10024C00E881E054E0936301A4E1B0E00E944C012A
:10025C0017D016D015D0A0E299DF81E28A95F1F77C
:10026C00A8E2A8DFA4E0A6DFA5E8A4DFA6E0A2DF51
:10027C00BADF219608959EDFA3E0B0E00C944C0108
:10028C00A0E384DF81E28A95F1F70895109639F0A6
:10029C008AEF90E00197F1F7A8951197C9F70895A7
:1002AC00F195E195F04008950024112490E1AA0FF6
:1002BC00BB1F001C111C0E1A1F0A18F40E0E1F1E59
:1002CC0001C0A1609A9599F7FD01D001089512D053
:1002DC00EBDF0EF4E5DF0895E894B7FF04C0A095BA
:1002EC00B09511966894F7FDDBDFDEDFFD010EF4AF
:1002FC00D7DF0895E894F7FF02C0D2DF6894B7FF08
:10030C0006C0A095B095119600F8039400FA0895D4
:00000001FF
