:020000000C945E
:100002002F000C9400000C9400000C9400000C943F
:1000120000000C9400000C9400000C9400000C945E
:1000220000000C9400000C9400000C9400000C944E
:1000320000000C9400000C9400000C9400000C943E
:1000420000000C9400000C9400000C9400000C942E
:10005200000000000200040054000000F894EE27A3
:10006200ECBBF1E0FBBFEBBFE5BF8DE0A2E0BB273D
:10007200ED938A95E9F780E094E0A0E6ED9301978D
:10008200E9F7E6E5F0E085919591009761F0A59199
:10009200B59105901590BF01F00105900D92019761
:1000A200E1F7FB01F0CFEFE5EDBFE4E0EEBFC0E624
:1000B200D1E00C945C00E0E0EABBEFEFE7BBC89B49
:1000C20029C044245524E8E0F0E04E165F065CF4B3
:1000D200E8B3EE0FE8BBA4E6B0E00E948D00F201A7
:1000E20031962F01F0CF44245524E8E0F0E04E167B
:1000F2005F0684F4E8B3F0E0DF01E2E0F0E00E94A2
:10010200AE00E8BBA4E6B0E00E948D00F201319699
:100112002F01EBCFD4CFFFCF109639F08AEF90E0CA
:100122000197F1F7A8951197C9F70895F195E1950F
:10013200F04008950024112490E1AA0FBB1F001C77
:10014200111C0E1A1F0A18F40E0E1F1E01C0A16008
:100152009A9599F7FD01D001089504D0EBDF0EF4D2
:10016200E5DF0895E894F7FF02C0E0DF6894B7FF87
:1001720006C0A095B095119600F8039400FA089570
:00000001FF
