:100000000C9435000C9400000C9400000C9400003B
:100010000C9400000C9400000C9400000C94000060
:100020000C9400000C9400000C9400000C94000050
:100030000C9400000C9400000C9400000C94000040
:100040000C9400000C9400000C9400000C94000030
:100050000C94000048656C6C6F20776F726C6400C4
:1000600080C00200600160000000F894EE27ECBB45
:10007000F1E0FBBFEBBFE5BF8DE0A2E0BB27ED9356
:100080008A95E9F780E094E0A0E6ED930197E9F71F
:10009000E2E6F0E085919591009761F0A591B59128
:1000A00005901590BF01F00105900D920197E1F7C1
:1000B000FB01F0CFEFE5EDBFE4E0EEBFC0E6D1E03D
:1000C0000C946200E0E0EABBEBBBE7BBE8BBE4BB3F
:1000D000E5BBE1BBE2BBE3BFE2BFECBFEFBDEEBD02
:1000E000EDBDECBDE7BDE6BDEBBDEABDE9BDE8BDDC
:1000F000E2BDE5BDE4BDE3BDE9BFE5BFE4BFEAB9EC
:10010000E0E8E8B9E0E0E0BFE6B9EDB9E6BFA4E1B8
:1001100068D0E0E0EA93A0E025D0A4E5B0E04ED0BE
:10012000F8CFFFCFAA93EBB3EF70AE2FE881E07F5B
:10013000EA2BEBBB82E08A95F1F7DA9A82E08A95A6
:10014000F1F7DA9882E08A95F1F773C0AA93A88153
:10015000E9DFE881E295E883A881E4DF81E18A951F
:10016000F1F767C0AA93E881F0E0E05AFE4FE08122
:10017000A981AE0FEBDF5980488022960895A2E056
:100180005AD0ACE0E3DFA1E056D0E0E04E2E5E2E88
:100190000895AA93A881AA3011F0571448F0E0E01E
:1001A000EA934394A42DDEDFA881AA3009F441C06C
:1001B0005394D89AA881CADFD8983BC0BA93AA931F
:1001C0001A93E981FA813196E983FA833197E491B0
:1001D0001E2FE03019F0A12FDCDFF3CF188123961A
:1001E0000895AA93EAB3E06FEABBD29AD09AD19A63
:1001F000DA98D898D9987880E881E058E09362013D
:10020000E881E054E0936301A4E1B0E00E9426019C
:1002100017D016D015D0A0E285DF81E28A95F1F7DC
:10022000A8E294DFA4E092DFA5E890DFA6E08EDFED
:10023000A6DF219608958ADFA3E0B0E00C942601A2
:10024000A0E370DF81E28A95F1F70895109639F006
:100250008AEF90E00197F1F7A8951197C9F70895F3
:00000001FF
